:10035300C0F9A4B0999282F88090BFC0CFA4868BD5
:060363009290C78082BFEA
:0C039600010800010900010A00010B0031
:1002D7001513E51375F00A84C454F0FFE51375F0A0
:1002E7000A84E5F02FFF22E51475F00A84C454F060
:1002F700FEE51475F00A8422120369530D7F530E2D
:100307007F22EF540F90035E93F50FEFC4540F93C2
:0D031700F50E22C4540F90035E93F50C22E6
:0403A3001203092216
:0E037A00EF540F90035393F50DEF12031A2268
:10036900120309ED540F90035393F50DED12031A7F
:010379002261
:03000B0002000EE2
:10000E00C0E0C0F0C083C082C0D075D000C005C0B3
:10001E0006C0073001022151D2010509E509C3943A
:10002E0014500201D1750900E50A6009D50A0EC205
:10003E0002D2B38008300205750A64C2B30512E518
:10004E0012C39464407D7512000515E515B4050DB7
:10005E00C20030036E430D80430E8001D1E515C3FF
:10006E00940A405F751500D200300354E50B601002
:10007E00150BE50B704AC203851114851013800D04
:10008E00E514601DE5137011151475133B1202D99A
:10009E001202EEE5F02EFD80241202D71203A38089
:1000AE001FE51360111202D71203A3E513D39403B5
:1000BE00500ED202800A750B027DAA7FAA12036926
:1000CE00120302E5096004640A7076E516146021D5
:1000DE001460351460492403705BD2B4E508D394E0
:1000EE00035005E51730E005850CA0C2B705168054
:1000FE0044D2B7E508D394035005E51730E10585E2
:10010E000DA0C2B60516802DD2B6E508D3940350C5
:10011E0005E51730E205850EA0C2B505168016D28C
:10012E00B5E508D394035005E51730E305850FA018
:10013E00C2B47516000508E508C394084003750897
:10014E0000C201D007D006D005D0D0D082D083D047
:04015E00F0D0E032CB
:0E038800AF15AE12E5156F60FBEEB512FC224C
:08000300AF12EF651260FB2251
:10032400D201D200E4F515F512F516F513F514F51E
:1003340010F511C203FDFF1202FFC201438E80E4D7
:0F034400F589758A8E758CF975881075A88222D7
:10016200D204D205C206120324D20275170F75916A
:10017200CFE4F59230955830945520034C20041565
:10018200E517B40F08E514603D15148019E51360F6
:10019200351513802B20052EE517B40F1AE514C36D
:1001A2009463502205141202F8C454F0FFE51412AD
:1001B20002E512037A800FE513C3943B500805133E
:1001C2001202D91203A3120302D204D2058008A29A
:1001D200959204A294920520B04412038820B03E66
:1001E20030B0FD300317C2038511148510131202BB
:1001F200D91202EEE5F02EFD1202FF8021E5147005
:1002020004E5136017200606851411851310C20633
:10021200E4F512F515D20375170F8002D20230B140
:1002220002217612038830B102217630B1FD30030B
:1002320009C203D2061203022176E517B40F05752F
:09024200170C217675170F2176C7
:0300000002024BAE
:0C024B00787FE4F6D8FD75812002029255
:10025700020162E493A3F8E493A34003F68001F25A
:1002670008DFF48029E493A3F85407240CC8C333A8
:10027700C4540F4420C8834004F456800146F6DF77
:10028700E4800B0102040810204080900396E47E6E
:10029700019360BCA3FF543F30E509541FFEE4936C
:1002A700A360010ECF54C025E060A840B8E493A333
:1002B700FAE493A3F8E493A3C8C582C8CAC583CA5E
:1002C700F0A3C8C582C8CAC583CADFE9DEE780BE16
:0103A200005A
:00000001FF
